{
  "address": "0xe7f1725E7734CE288F8367e1Bb143E90bb3F0512",
  "abi": [
    {
      "inputs": [
        {
          "internalType": "address",
          "name": "priceFeedAddress",
          "type": "address"
        }
      ],
      "stateMutability": "nonpayable",
      "type": "constructor"
    },
    {
      "inputs": [],
      "name": "FundMe__NotOwner",
      "type": "error"
    },
    {
      "stateMutability": "payable",
      "type": "fallback"
    },
    {
      "inputs": [],
      "name": "ContractOwner",
      "outputs": [
        {
          "internalType": "address",
          "name": "",
          "type": "address"
        }
      ],
      "stateMutability": "view",
      "type": "function"
    },
    {
      "inputs": [],
      "name": "Fund",
      "outputs": [],
      "stateMutability": "payable",
      "type": "function"
    },
    {
      "inputs": [],
      "name": "MINIMUM_USD",
      "outputs": [
        {
          "internalType": "uint256",
          "name": "",
          "type": "uint256"
        }
      ],
      "stateMutability": "view",
      "type": "function"
    },
    {
      "inputs": [],
      "name": "Withdraw",
      "outputs": [],
      "stateMutability": "nonpayable",
      "type": "function"
    },
    {
      "inputs": [
        {
          "internalType": "address",
          "name": "",
          "type": "address"
        }
      ],
      "name": "amountFunded",
      "outputs": [
        {
          "internalType": "uint256",
          "name": "",
          "type": "uint256"
        }
      ],
      "stateMutability": "view",
      "type": "function"
    },
    {
      "inputs": [
        {
          "internalType": "uint256",
          "name": "",
          "type": "uint256"
        }
      ],
      "name": "funders",
      "outputs": [
        {
          "internalType": "address",
          "name": "",
          "type": "address"
        }
      ],
      "stateMutability": "view",
      "type": "function"
    },
    {
      "inputs": [],
      "name": "priceFeed",
      "outputs": [
        {
          "internalType": "contract AggregatorV3Interface",
          "name": "",
          "type": "address"
        }
      ],
      "stateMutability": "view",
      "type": "function"
    },
    {
      "stateMutability": "payable",
      "type": "receive"
    }
  ],
  "transactionHash": "0x2fffdc179d4920532b58e932d88bee9a67823905f005a58283256d0fbf0b7152",
  "args": [
    "0x5FbDB2315678afecb367f032d93F642f64180aa3"
  ],
  "numDeployments": 1,
  "solcInputHash": "7520c540c87205f2746dac548454cb80",
  "bytecode": "0x60a060405234801561001057600080fd5b50604051610fa3380380610fa383398181016040528101906100329190610113565b3373ffffffffffffffffffffffffffffffffffffffff1660808173ffffffffffffffffffffffffffffffffffffffff1660601b8152505080600260006101000a81548173ffffffffffffffffffffffffffffffffffffffff021916908373ffffffffffffffffffffffffffffffffffffffff16021790555050610140565b600080fd5b600073ffffffffffffffffffffffffffffffffffffffff82169050919050565b60006100e0826100b5565b9050919050565b6100f0816100d5565b81146100fb57600080fd5b50565b60008151905061010d816100e7565b92915050565b600060208284031215610129576101286100b0565b5b6000610137848285016100fe565b91505092915050565b60805160601c610e3e610165600039600081816102d401526105140152610e3e6000f3fe6080604052600436106100745760003560e01c80636ce1417e1161004e5780636ce1417e146100fa578063741bef1a14610104578063dc0d3dff1461012f578063deaf2cf01461016c57610083565b806357ea89b61461008d5780635a63fbc9146100a45780636b69a592146100cf57610083565b36610083576100816101a9565b005b61008b6101a9565b005b34801561009957600080fd5b506100a26102d2565b005b3480156100b057600080fd5b506100b9610512565b6040516100c69190610784565b60405180910390f35b3480156100db57600080fd5b506100e4610536565b6040516100f191906107b8565b60405180910390f35b6101026101a9565b005b34801561011057600080fd5b50610119610543565b6040516101269190610832565b60405180910390f35b34801561013b57600080fd5b506101566004803603810190610151919061087e565b610569565b6040516101639190610784565b60405180910390f35b34801561017857600080fd5b50610193600480360381019061018e91906108d7565b6105a8565b6040516101a091906107b8565b60405180910390f35b6802b5e3af16b18800006101e8600260009054906101000a900473ffffffffffffffffffffffffffffffffffffffff16346105c090919063ffffffff16565b1015610229576040517f08c379a000000000000000000000000000000000000000000000000000000000815260040161022090610987565b60405180910390fd5b6000339080600181540180825580915050600190039060005260206000200160009091909190916101000a81548173ffffffffffffffffffffffffffffffffffffffff021916908373ffffffffffffffffffffffffffffffffffffffff16021790555034600160003373ffffffffffffffffffffffffffffffffffffffff1673ffffffffffffffffffffffffffffffffffffffff16815260200190815260200160002081905550565b7f000000000000000000000000000000000000000000000000000000000000000073ffffffffffffffffffffffffffffffffffffffff163373ffffffffffffffffffffffffffffffffffffffff1614610357576040517f579610db00000000000000000000000000000000000000000000000000000000815260040160405180910390fd5b60005b60008054905081101561040257600080828154811061037c5761037b6109a7565b5b9060005260206000200160009054906101000a900473ffffffffffffffffffffffffffffffffffffffff1690506000600160008373ffffffffffffffffffffffffffffffffffffffff1673ffffffffffffffffffffffffffffffffffffffff168152602001908152602001600020819055505080806103fa90610a05565b91505061035a565b50600067ffffffffffffffff81111561041e5761041d610a4e565b5b60405190808252806020026020018201604052801561044c5781602001602082028036833780820191505090505b506000908051906020019061046292919061069c565b5060003373ffffffffffffffffffffffffffffffffffffffff164760405161048990610aae565b60006040518083038185875af1925050503d80600081146104c6576040519150601f19603f3d011682016040523d82523d6000602084013e6104cb565b606091505b505090508061050f576040517f08c379a000000000000000000000000000000000000000000000000000000000815260040161050690610b0f565b60405180910390fd5b50565b7f000000000000000000000000000000000000000000000000000000000000000081565b6802b5e3af16b188000081565b600260009054906101000a900473ffffffffffffffffffffffffffffffffffffffff1681565b6000818154811061057957600080fd5b906000526020600020016000915054906101000a900473ffffffffffffffffffffffffffffffffffffffff1681565b60016020528060005260406000206000915090505481565b6000806105cc836105fc565b90506000670de0b6b3a764000085836105e59190610b2f565b6105ef9190610bb8565b9050809250505092915050565b6000808273ffffffffffffffffffffffffffffffffffffffff1663feaf968c6040518163ffffffff1660e01b815260040160a06040518083038186803b15801561064557600080fd5b505afa158015610659573d6000803e3d6000fd5b505050506040513d601f19601f8201168201806040525081019061067d9190610c76565b5050509150506402540be400816106949190610cf1565b915050919050565b828054828255906000526020600020908101928215610715579160200282015b828111156107145782518260006101000a81548173ffffffffffffffffffffffffffffffffffffffff021916908373ffffffffffffffffffffffffffffffffffffffff160217905550916020019190600101906106bc565b5b5090506107229190610726565b5090565b5b8082111561073f576000816000905550600101610727565b5090565b600073ffffffffffffffffffffffffffffffffffffffff82169050919050565b600061076e82610743565b9050919050565b61077e81610763565b82525050565b60006020820190506107996000830184610775565b92915050565b6000819050919050565b6107b28161079f565b82525050565b60006020820190506107cd60008301846107a9565b92915050565b6000819050919050565b60006107f86107f36107ee84610743565b6107d3565b610743565b9050919050565b600061080a826107dd565b9050919050565b600061081c826107ff565b9050919050565b61082c81610811565b82525050565b60006020820190506108476000830184610823565b92915050565b600080fd5b61085b8161079f565b811461086657600080fd5b50565b60008135905061087881610852565b92915050565b6000602082840312156108945761089361084d565b5b60006108a284828501610869565b91505092915050565b6108b481610763565b81146108bf57600080fd5b50565b6000813590506108d1816108ab565b92915050565b6000602082840312156108ed576108ec61084d565b5b60006108fb848285016108c2565b91505092915050565b600082825260208201905092915050565b7f5065686c6920467572736174204d61696e204e696b616c21204761726565622060008201527f7844000000000000000000000000000000000000000000000000000000000000602082015250565b6000610971602283610904565b915061097c82610915565b604082019050919050565b600060208201905081810360008301526109a081610964565b9050919050565b7f4e487b7100000000000000000000000000000000000000000000000000000000600052603260045260246000fd5b7f4e487b7100000000000000000000000000000000000000000000000000000000600052601160045260246000fd5b6000610a108261079f565b91507fffffffffffffffffffffffffffffffffffffffffffffffffffffffffffffffff821415610a4357610a426109d6565b5b600182019050919050565b7f4e487b7100000000000000000000000000000000000000000000000000000000600052604160045260246000fd5b600081905092915050565b50565b6000610a98600083610a7d565b9150610aa382610a88565b600082019050919050565b6000610ab982610a8b565b9150819050919050565b7f5472616e73616374696f6e204661696c65640000000000000000000000000000600082015250565b6000610af9601283610904565b9150610b0482610ac3565b602082019050919050565b60006020820190508181036000830152610b2881610aec565b9050919050565b6000610b3a8261079f565b9150610b458361079f565b9250817fffffffffffffffffffffffffffffffffffffffffffffffffffffffffffffffff0483118215151615610b7e57610b7d6109d6565b5b828202905092915050565b7f4e487b7100000000000000000000000000000000000000000000000000000000600052601260045260246000fd5b6000610bc38261079f565b9150610bce8361079f565b925082610bde57610bdd610b89565b5b828204905092915050565b600069ffffffffffffffffffff82169050919050565b610c0881610be9565b8114610c1357600080fd5b50565b600081519050610c2581610bff565b92915050565b6000819050919050565b610c3e81610c2b565b8114610c4957600080fd5b50565b600081519050610c5b81610c35565b92915050565b600081519050610c7081610852565b92915050565b600080600080600060a08688031215610c9257610c9161084d565b5b6000610ca088828901610c16565b9550506020610cb188828901610c4c565b9450506040610cc288828901610c61565b9350506060610cd388828901610c61565b9250506080610ce488828901610c16565b9150509295509295909350565b6000610cfc82610c2b565b9150610d0783610c2b565b9250827f7fffffffffffffffffffffffffffffffffffffffffffffffffffffffffffffff0482116000841360008413161615610d4657610d456109d6565b5b817f80000000000000000000000000000000000000000000000000000000000000000583126000841260008413161615610d8357610d826109d6565b5b827f80000000000000000000000000000000000000000000000000000000000000000582126000841360008412161615610dc057610dbf6109d6565b5b827f7fffffffffffffffffffffffffffffffffffffffffffffffffffffffffffffff0582126000841260008412161615610dfd57610dfc6109d6565b5b82820290509291505056fea2646970667358221220a69a710c40ca929f504315d242db687952026de39bafc8d543718fed03633e9464736f6c63430008080033",
  "devdoc": {
    "kind": "dev",
    "methods": {},
    "version": 1
  },
  "userdoc": {
    "kind": "user",
    "methods": {},
    "version": 1
  },
  "storageLayout": {
    "storage": [
      {
        "astId": 57,
        "contract": "contracts/FundMe.sol:FundMe",
        "label": "funders",
        "offset": 0,
        "slot": "0",
        "type": "t_array(t_address)dyn_storage"
      },
      {
        "astId": 61,
        "contract": "contracts/FundMe.sol:FundMe",
        "label": "amountFunded",
        "offset": 0,
        "slot": "1",
        "type": "t_mapping(t_address,t_uint256)"
      },
      {
        "astId": 73,
        "contract": "contracts/FundMe.sol:FundMe",
        "label": "priceFeed",
        "offset": 0,
        "slot": "2",
        "type": "t_contract(AggregatorV3Interface)45"
      }
    ],
    "types": {
      "t_address": {
        "encoding": "inplace",
        "label": "address",
        "numberOfBytes": "20"
      },
      "t_array(t_address)dyn_storage": {
        "base": "t_address",
        "encoding": "dynamic_array",
        "label": "address[]",
        "numberOfBytes": "32"
      },
      "t_contract(AggregatorV3Interface)45": {
        "encoding": "inplace",
        "label": "contract AggregatorV3Interface",
        "numberOfBytes": "20"
      },
      "t_mapping(t_address,t_uint256)": {
        "encoding": "mapping",
        "key": "t_address",
        "label": "mapping(address => uint256)",
        "numberOfBytes": "32",
        "value": "t_uint256"
      },
      "t_uint256": {
        "encoding": "inplace",
        "label": "uint256",
        "numberOfBytes": "32"
      }
    }
  }
}