{
  "address": "0x7bf6a94c57654f1a62f6b3df7d646f73fc1251e7",
  "abi": [
    {
      "inputs": [
        {
          "internalType": "address",
          "name": "priceFeedAddress",
          "type": "address"
        }
      ],
      "stateMutability": "nonpayable",
      "type": "constructor"
    },
    {
      "inputs": [],
      "name": "NotOwner",
      "type": "error"
    },
    {
      "stateMutability": "payable",
      "type": "fallback"
    },
    {
      "inputs": [],
      "name": "Balance",
      "outputs": [
        {
          "internalType": "uint256",
          "name": "",
          "type": "uint256"
        }
      ],
      "stateMutability": "view",
      "type": "function"
    },
    {
      "inputs": [],
      "name": "ContractOwner",
      "outputs": [
        {
          "internalType": "address",
          "name": "",
          "type": "address"
        }
      ],
      "stateMutability": "view",
      "type": "function"
    },
    {
      "inputs": [],
      "name": "Fund",
      "outputs": [],
      "stateMutability": "payable",
      "type": "function"
    },
    {
      "inputs": [],
      "name": "MINIMUM_USD",
      "outputs": [
        {
          "internalType": "uint256",
          "name": "",
          "type": "uint256"
        }
      ],
      "stateMutability": "view",
      "type": "function"
    },
    {
      "inputs": [],
      "name": "Withdraw",
      "outputs": [],
      "stateMutability": "nonpayable",
      "type": "function"
    },
    {
      "inputs": [
        {
          "internalType": "address",
          "name": "",
          "type": "address"
        }
      ],
      "name": "amountFunded",
      "outputs": [
        {
          "internalType": "uint256",
          "name": "",
          "type": "uint256"
        }
      ],
      "stateMutability": "view",
      "type": "function"
    },
    {
      "inputs": [
        {
          "internalType": "uint256",
          "name": "",
          "type": "uint256"
        }
      ],
      "name": "funders",
      "outputs": [
        {
          "internalType": "address",
          "name": "",
          "type": "address"
        }
      ],
      "stateMutability": "view",
      "type": "function"
    },
    {
      "inputs": [],
      "name": "priceFeed",
      "outputs": [
        {
          "internalType": "contract AggregatorV3Interface",
          "name": "",
          "type": "address"
        }
      ],
      "stateMutability": "view",
      "type": "function"
    },
    {
      "stateMutability": "payable",
      "type": "receive"
    }
  ],
  "transactionHash": "0xaa6f671222d7ae2c8d9245faad80057fa008b25190f41d4bc0b09b00dbffb06f",
  "args": [
    "0x8A753747A1Fa494EC906cE90E9f37563A8AF630e"
  ],
  "numDeployments": 1,
  "solcInputHash": "65973c0c5cb104b10da78629ca7c749a",
  "bytecode": "0x60a060405234801561001057600080fd5b50604051610fbb380380610fbb83398181016040528101906100329190610113565b3373ffffffffffffffffffffffffffffffffffffffff1660808173ffffffffffffffffffffffffffffffffffffffff1660601b8152505080600260006101000a81548173ffffffffffffffffffffffffffffffffffffffff021916908373ffffffffffffffffffffffffffffffffffffffff16021790555050610140565b600080fd5b600073ffffffffffffffffffffffffffffffffffffffff82169050919050565b60006100e0826100b5565b9050919050565b6100f0816100d5565b81146100fb57600080fd5b50565b60008151905061010d816100e7565b92915050565b600060208284031215610129576101286100b0565b5b6000610137848285016100fe565b91505092915050565b60805160601c610e566101656000396000818161031201526105520152610e566000f3fe60806040526004361061007f5760003560e01c80636ce1417e1161004e5780636ce1417e14610130578063741bef1a1461013a578063dc0d3dff14610165578063deaf2cf0146101a25761008e565b80630ef678871461009857806357ea89b6146100c35780635a63fbc9146100da5780636b69a592146101055761008e565b3661008e5761008c6101df565b005b6100966101df565b005b3480156100a457600080fd5b506100ad610308565b6040516100ba919061079a565b60405180910390f35b3480156100cf57600080fd5b506100d8610310565b005b3480156100e657600080fd5b506100ef610550565b6040516100fc91906107f6565b60405180910390f35b34801561011157600080fd5b5061011a610574565b604051610127919061079a565b60405180910390f35b6101386101df565b005b34801561014657600080fd5b5061014f610581565b60405161015c9190610870565b60405180910390f35b34801561017157600080fd5b5061018c600480360381019061018791906108bc565b6105a7565b60405161019991906107f6565b60405180910390f35b3480156101ae57600080fd5b506101c960048036038101906101c49190610915565b6105e6565b6040516101d6919061079a565b60405180910390f35b6802b5e3af16b188000061021e600260009054906101000a900473ffffffffffffffffffffffffffffffffffffffff16346105fe90919063ffffffff16565b101561025f576040517f08c379a00000000000000000000000000000000000000000000000000000000081526004016102569061099f565b60405180910390fd5b6000339080600181540180825580915050600190039060005260206000200160009091909190916101000a81548173ffffffffffffffffffffffffffffffffffffffff021916908373ffffffffffffffffffffffffffffffffffffffff16021790555034600160003373ffffffffffffffffffffffffffffffffffffffff1673ffffffffffffffffffffffffffffffffffffffff16815260200190815260200160002081905550565b600047905090565b7f000000000000000000000000000000000000000000000000000000000000000073ffffffffffffffffffffffffffffffffffffffff163373ffffffffffffffffffffffffffffffffffffffff1614610395576040517f30cd747100000000000000000000000000000000000000000000000000000000815260040160405180910390fd5b60005b6000805490508110156104405760008082815481106103ba576103b96109bf565b5b9060005260206000200160009054906101000a900473ffffffffffffffffffffffffffffffffffffffff1690506000600160008373ffffffffffffffffffffffffffffffffffffffff1673ffffffffffffffffffffffffffffffffffffffff1681526020019081526020016000208190555050808061043890610a1d565b915050610398565b50600067ffffffffffffffff81111561045c5761045b610a66565b5b60405190808252806020026020018201604052801561048a5781602001602082028036833780820191505090505b50600090805190602001906104a09291906106da565b5060003373ffffffffffffffffffffffffffffffffffffffff16476040516104c790610ac6565b60006040518083038185875af1925050503d8060008114610504576040519150601f19603f3d011682016040523d82523d6000602084013e610509565b606091505b505090508061054d576040517f08c379a000000000000000000000000000000000000000000000000000000000815260040161054490610b27565b60405180910390fd5b50565b7f000000000000000000000000000000000000000000000000000000000000000081565b6802b5e3af16b188000081565b600260009054906101000a900473ffffffffffffffffffffffffffffffffffffffff1681565b600081815481106105b757600080fd5b906000526020600020016000915054906101000a900473ffffffffffffffffffffffffffffffffffffffff1681565b60016020528060005260406000206000915090505481565b60008061060a8361063a565b90506000670de0b6b3a764000085836106239190610b47565b61062d9190610bd0565b9050809250505092915050565b6000808273ffffffffffffffffffffffffffffffffffffffff1663feaf968c6040518163ffffffff1660e01b815260040160a06040518083038186803b15801561068357600080fd5b505afa158015610697573d6000803e3d6000fd5b505050506040513d601f19601f820116820180604052508101906106bb9190610c8e565b5050509150506402540be400816106d29190610d09565b915050919050565b828054828255906000526020600020908101928215610753579160200282015b828111156107525782518260006101000a81548173ffffffffffffffffffffffffffffffffffffffff021916908373ffffffffffffffffffffffffffffffffffffffff160217905550916020019190600101906106fa565b5b5090506107609190610764565b5090565b5b8082111561077d576000816000905550600101610765565b5090565b6000819050919050565b61079481610781565b82525050565b60006020820190506107af600083018461078b565b92915050565b600073ffffffffffffffffffffffffffffffffffffffff82169050919050565b60006107e0826107b5565b9050919050565b6107f0816107d5565b82525050565b600060208201905061080b60008301846107e7565b92915050565b6000819050919050565b600061083661083161082c846107b5565b610811565b6107b5565b9050919050565b60006108488261081b565b9050919050565b600061085a8261083d565b9050919050565b61086a8161084f565b82525050565b60006020820190506108856000830184610861565b92915050565b600080fd5b61089981610781565b81146108a457600080fd5b50565b6000813590506108b681610890565b92915050565b6000602082840312156108d2576108d161088b565b5b60006108e0848285016108a7565b91505092915050565b6108f2816107d5565b81146108fd57600080fd5b50565b60008135905061090f816108e9565b92915050565b60006020828403121561092b5761092a61088b565b5b600061093984828501610900565b91505092915050565b600082825260208201905092915050565b7f556e737566696369656e7420416d6f756e740000000000000000000000000000600082015250565b6000610989601283610942565b915061099482610953565b602082019050919050565b600060208201905081810360008301526109b88161097c565b9050919050565b7f4e487b7100000000000000000000000000000000000000000000000000000000600052603260045260246000fd5b7f4e487b7100000000000000000000000000000000000000000000000000000000600052601160045260246000fd5b6000610a2882610781565b91507fffffffffffffffffffffffffffffffffffffffffffffffffffffffffffffffff821415610a5b57610a5a6109ee565b5b600182019050919050565b7f4e487b7100000000000000000000000000000000000000000000000000000000600052604160045260246000fd5b600081905092915050565b50565b6000610ab0600083610a95565b9150610abb82610aa0565b600082019050919050565b6000610ad182610aa3565b9150819050919050565b7f5472616e73616374696f6e204661696c65640000000000000000000000000000600082015250565b6000610b11601283610942565b9150610b1c82610adb565b602082019050919050565b60006020820190508181036000830152610b4081610b04565b9050919050565b6000610b5282610781565b9150610b5d83610781565b9250817fffffffffffffffffffffffffffffffffffffffffffffffffffffffffffffffff0483118215151615610b9657610b956109ee565b5b828202905092915050565b7f4e487b7100000000000000000000000000000000000000000000000000000000600052601260045260246000fd5b6000610bdb82610781565b9150610be683610781565b925082610bf657610bf5610ba1565b5b828204905092915050565b600069ffffffffffffffffffff82169050919050565b610c2081610c01565b8114610c2b57600080fd5b50565b600081519050610c3d81610c17565b92915050565b6000819050919050565b610c5681610c43565b8114610c6157600080fd5b50565b600081519050610c7381610c4d565b92915050565b600081519050610c8881610890565b92915050565b600080600080600060a08688031215610caa57610ca961088b565b5b6000610cb888828901610c2e565b9550506020610cc988828901610c64565b9450506040610cda88828901610c79565b9350506060610ceb88828901610c79565b9250506080610cfc88828901610c2e565b9150509295509295909350565b6000610d1482610c43565b9150610d1f83610c43565b9250827f7fffffffffffffffffffffffffffffffffffffffffffffffffffffffffffffff0482116000841360008413161615610d5e57610d5d6109ee565b5b817f80000000000000000000000000000000000000000000000000000000000000000583126000841260008413161615610d9b57610d9a6109ee565b5b827f80000000000000000000000000000000000000000000000000000000000000000582126000841360008412161615610dd857610dd76109ee565b5b827f7fffffffffffffffffffffffffffffffffffffffffffffffffffffffffffffff0582126000841260008412161615610e1557610e146109ee565b5b82820290509291505056fea26469706673582212202be178f4016e1c0448339bc3b3d83e5a2e43b3b16c901c7e5cd0de320104e65164736f6c63430008080033",
  "devdoc": {
    "kind": "dev",
    "methods": {},
    "version": 1
  },
  "userdoc": {
    "kind": "user",
    "methods": {},
    "version": 1
  },
  "storageLayout": {
    "storage": [
      {
        "astId": 56,
        "contract": "contracts/FundMe.sol:FundMe",
        "label": "funders",
        "offset": 0,
        "slot": "0",
        "type": "t_array(t_address)dyn_storage"
      },
      {
        "astId": 60,
        "contract": "contracts/FundMe.sol:FundMe",
        "label": "amountFunded",
        "offset": 0,
        "slot": "1",
        "type": "t_mapping(t_address,t_uint256)"
      },
      {
        "astId": 72,
        "contract": "contracts/FundMe.sol:FundMe",
        "label": "priceFeed",
        "offset": 0,
        "slot": "2",
        "type": "t_contract(AggregatorV3Interface)45"
      }
    ],
    "types": {
      "t_address": {
        "encoding": "inplace",
        "label": "address",
        "numberOfBytes": "20"
      },
      "t_array(t_address)dyn_storage": {
        "base": "t_address",
        "encoding": "dynamic_array",
        "label": "address[]",
        "numberOfBytes": "32"
      },
      "t_contract(AggregatorV3Interface)45": {
        "encoding": "inplace",
        "label": "contract AggregatorV3Interface",
        "numberOfBytes": "20"
      },
      "t_mapping(t_address,t_uint256)": {
        "encoding": "mapping",
        "key": "t_address",
        "label": "mapping(address => uint256)",
        "numberOfBytes": "32",
        "value": "t_uint256"
      },
      "t_uint256": {
        "encoding": "inplace",
        "label": "uint256",
        "numberOfBytes": "32"
      }
    }
  }
}